:100000000C9434000C9449000C9449000C94490061
:100010000C9449000C9449000C9449000C9449003C
:100020000C9449000C9449000C9449000C9449002C
:100030000C9449000C9449000C9449000C9449001C
:100040000C9449000C9449000C9449000C9449000C
:100050000C9449000C9449000C9449000C944900FC
:100060000C9449000C94490011241FBECFEFD8E036
:10007000DEBFCDBF11E0A0E0B1E0E8ECF1E002C0EE
:1000800005900D92A231B107D9F70E947F000C9420
:10009000E2000C9400001092C50087E68093C40033
:1000A00086E08093C20088E18093C100089590911A
:1000B000C00095FFFCCF8093C6000895CF93DF93D7
:1000C000EC018991811103C0DF91CF9108950E94C5
:1000D0005700F7CF88EC80937C0087E880937A0004
:1000E000089580917A00806480937A0080917A00EC
:1000F00086FDFCCF80917800909179000895CF9390
:10010000DF93CDB7DEB72A970FB6F894DEBF0FBEE8
:10011000CDBF0E944B000E946A000E9471004AE01D
:10012000BE016F5F7F4F875491400E94AD0080E019
:1001300091E00E945E00CE0101960E945E008EE07A
:1001400091E00E945E002FEF83ED90E3215080400C
:100150009040E1F700C00000E0CFBB274A3031F407
:10016000992322F4BDE2909581959F4F0C94B9009C
:10017000BB27FB015527AA27880F991FAA1FA41781
:1001800010F0A41B83955051B9F7A05DAA3308F075
:10019000A95DA193009779F7B111B1931192CB01A9
:1001A0000C94D200DC01FC01672F71917723E1F7F9
:1001B000329704C07C916D9370836291AE17BF0734
:0801C000C8F30895F894FFCF85
:1001C80054656D70657261747572653A20002043DC
:0201D8000A001B
:00000001FF
