:100000000C9434000C9449000C9449000C94490061
:100010000C9449000C9449000C9449000C9449003C
:100020000C9449000C9449000C9449000C9449002C
:100030000C9449000C9449000C9449000C9449001C
:100040000C9449000C9449000C9449000C9449000C
:100050000C9449000C9449000C9449000C944900FC
:100060000C9449000C94490011241FBECFEFD8E036
:10007000DEBFCDBF11E0A0E0B1E0EAEEF0E002C0EB
:1000800005900D92AE30B107D9F70E945E000C9436
:1000900073000C9400001092C50087E68093C400A2
:1000A00086E08093C20088E18093C100089590911A
:1000B000C00095FFFCCF8093C60008950E944B00BE
:1000C000C0E0D1E089910E94570021E0CD30D207F5
:1000D000C9F78FEF93ED20E3815090402040E1F786
:0A00E00000C00000EDCFF894FFCF40
:0E00EA0048656C6C6F20776F726C64210A00A1
:00000001FF
